{
  "_format": "hh-sol-artifact-1",
  "contractName": "PriceFeed",
  "sourceName": "contracts/PriceFeed.sol",
  "abi": [
    {
      "inputs": [],
      "stateMutability": "nonpayable",
      "type": "constructor"
    },
    {
      "inputs": [],
      "name": "getBEPrice",
      "outputs": [
        {
          "internalType": "int256",
          "name": "",
          "type": "int256"
        }
      ],
      "stateMutability": "view",
      "type": "function"
    },
    {
      "inputs": [],
      "name": "getBUPrice",
      "outputs": [
        {
          "internalType": "int256",
          "name": "",
          "type": "int256"
        }
      ],
      "stateMutability": "view",
      "type": "function"
    }
  ],
  "bytecode": "0x608060405234801561001057600080fd5b5073779877a7b0d9e8603169ddbd7836e478b46247896000806101000a81548173ffffffffffffffffffffffffffffffffffffffff021916908373ffffffffffffffffffffffffffffffffffffffff16021790555073a39434a63a52e749f02807ae27335515ba4b07f7600160006101000a81548173ffffffffffffffffffffffffffffffffffffffff021916908373ffffffffffffffffffffffffffffffffffffffff160217905550610345806100c96000396000f3fe608060405234801561001057600080fd5b50600436106100365760003560e01c80636c3f081b1461003b578063da0873ac14610059575b600080fd5b610043610077565b60405161005091906101d0565b60405180910390f35b610061610118565b60405161006e91906101d0565b60405180910390f35b600080600160009054906101000a900473ffffffffffffffffffffffffffffffffffffffff1673ffffffffffffffffffffffffffffffffffffffff1663feaf968c6040518163ffffffff1660e01b815260040160a060405180830381865afa1580156100e7573d6000803e3d6000fd5b505050506040513d601f19601f8201168201806040525081019061010b9190610294565b5050509150508091505090565b60008060008054906101000a900473ffffffffffffffffffffffffffffffffffffffff1673ffffffffffffffffffffffffffffffffffffffff1663feaf968c6040518163ffffffff1660e01b815260040160a060405180830381865afa158015610186573d6000803e3d6000fd5b505050506040513d601f19601f820116820180604052508101906101aa9190610294565b5050509150508091505090565b6000819050919050565b6101ca816101b7565b82525050565b60006020820190506101e560008301846101c1565b92915050565b600080fd5b600069ffffffffffffffffffff82169050919050565b61020f816101f0565b811461021a57600080fd5b50565b60008151905061022c81610206565b92915050565b61023b816101b7565b811461024657600080fd5b50565b60008151905061025881610232565b92915050565b6000819050919050565b6102718161025e565b811461027c57600080fd5b50565b60008151905061028e81610268565b92915050565b600080600080600060a086880312156102b0576102af6101eb565b5b60006102be8882890161021d565b95505060206102cf88828901610249565b94505060406102e08882890161027f565b93505060606102f18882890161027f565b92505060806103028882890161021d565b915050929550929590935056fea2646970667358221220f0e7387001632437c17ae2621aefa958381d80bf1f221c0b0d5fe14cde938be064736f6c63430008110033",
  "linkReferences": {},
  "deployedLinkReferences": {}
}